:020000041FFFDC
:1008000000000000D5D8FF1F740B0020A80B0020AB
:10081000DC170020000000000000000000000000C5
:1008200000000000000000000000000000000000C8
:1008300000000000000000000000000000000000B8
:1008400000000000000000000000000000000000A8
:100850000000000000000000000000000000000098
:100860000000000000000000000000000000000088
:100870000000000000000000000000000000000078
:100880000000000000000000000000000000000068
:100890000000000000000000000000000000000058
:1008A0000000000000000000000000000000000048
:1008B0000000000000000000000000000000000038
:1008C0000000000000000000000000000000000028
:1008D0000000000000000000000000000000000018
:1008E0000000000000000000000000000000000008
:1008F00000000000000000000000000000000000F8
:1009000000000000000000000000000000000000E7
:1009100000000000000000000000000000000000D7
:1009200000000000000000000000000000000000C7
:1009300000000000000000000000000000000000B7
:1009400000000000000000000000000000000000A7
:100950000000000000000000000000000000000097
:100960000000000000000000000000000000000087
:100970000000000000000000000000000000000077
:100980000000000000000000000000000000000067
:1009900035B7FF1FC9B7FF1FD5EBFF1F00000000D1
:1009A0000000000000000000000000000000000047
:1009B0000000000000000000000000000000000037
:1009C0000000000000000000000000000000000027
:1009D0000000000000000000000000000000000017
:1009E0000000000000000000000000000000000007
:1009F00000000000000000000000000000000000F7
:100A000000000000000000000000000000000000E6
:100A100000000000000000000000000000000000D6
:100A200000000000000000000000000000000000C6
:100A300000000000000000000000000000000000B6
:100A400000000000000000000000000000000000A6
:100A50000000000000000000000000000000000096
:100A60000000000000000000000000000000000086
:100A70000000000000000000000000000000000076
:100A80000000000000000000000000000000000066
:100A90000000000000000000000000000000000056
:100AA0000000000000000000000000000000000046
:100AB0000000000000000000000000000000000036
:100AC0000000000000000000000000000000000026
:100AD0000000000000000000000000000000000016
:100AE0000000000000000000000000000000000006
:100AF00000000000000000000000000000000000F6
:100B000000000000000000000000000000000000E5
:100B100000000000000000000000000000000000D5
:100B200000000000000000000000000000000000C5
:100B300000000000000000000000000000000000B5
:100B400000000000000000000000000000000000A5
:100B50000000000000000000000000000000000095
:100B60000000000000000000000000000000000085
:100B7000FDBDFF1F0000000000000000000000009D
:100B80000000000000000000000000000000000065
:100B90000000000000000000000000000000000055
:100BA00000000000000000000000000091AAFF1FEC
:100BB000000000000000000021AAFF1F59AAFF1F2B
:100BC00009AAFF1F00000000000000000000000054
:100BD0000000000000000000000000000000000015
:100BE0000000000000000000000000000000000005
:100BF000000000003DA9FF1F0000000000000000F1
:0C0C000001FF01FF01FF01FF41000000A7
:020000041FFFDC
:1048000090590020D548FF1FDD48FF1FDF48FF1FDC
:104810000000000000000000000000000000000098
:10482000000000000000000000000000E148FF1F41
:104830000000000000000000E348FF1FE548FF1FE4
:104840000000000000000000000000000000000068
:104850000000000000000000000000000000000058
:104860000000000000000000000000000000000048
:104870000000000000000000000000000000000038
:104880000000000000000000000000000000000028
:104890000000000000000000000000000000000018
:1048A0000000000000000000000000000000000008
:1048B00000000000000000000000000000000000F8
:1048C0000348854600F09AFC0048004701D7FF1FC7
:1048D000905900200448804704480047FEE7FEE75F
:1048E000FEE7FEE7FEE7FEE7D570FF1FC148FF1FAA
:1048F00003460B439B0703D009E008C9121F08C0F9
:10490000042AFAD203E00B780370401C491C521EA3
:10491000F9D27047D2B201E00270401C491EFBD2AE
:1049200070470022F6E710B513460A4604461946BA
:10493000FFF7F0FF204610BD30B5044600200346C7
:1049400000E05B1C934203D2E05CCD5C401BF8D0DE
:1049500030BD0321001D401E037812021A43491E78
:10496000F9D510467047F8B502464A40D40F4200C8
:104970004B0052085B089A4202D202460846114692
:104980004A0023D0C30D4A00DDB2120EAD1A202D0D
:1049900035DA49020126490AF6058A19002C00D0A9
:1049A000524220214F1B1146B9402A411018C20D16
:1049B0009A4221D0002C17D0012D08DCDA05801A8C
:1049C000D20F8019D207DBB200F080FBF8BDDA0508
:1049D000801A012340001B06C01880185A42801814
:1049E000CA0F1043490007E04908C2071143DA051E
:1049F000801A80194008801800F060FBF8BD610043
:104A00000122511A001BF7E70122D2075140AAE701
:104A10000122D2075040A6E7024670B54A40D30FA4
:104A2000DB0740002DD04A002AD0010E140E0002F0
:104A300012020919400A520A8418E5010446544337
:104A4000000A120A2E045043A4194219200CC5432F
:104A5000AA18120C0125AD03521C521912047F39F9
:104A6000240400D0521C104301D44000491EC2B29D
:104A70000C06C0092018401C4008802A02D003E020
:104A8000002070BD40084000002900DA00201843D3
:104A900070BD70B502464A40D50F40004A00ED0790
:104AA00040085208002814D0002A12D0C40DD30D9B
:104AB00041020120C0055202490A520AE41A0918AB
:104AC00012187D34914201D3641C00E04900002C8F
:104AD00001DA002070BD0023914201D3891A0343FB
:104AE000400849000028F7D100290AD0914202D19C
:104AF0000121C90705E0914201D2012101E0012114
:104B0000C943E005C018401900F0D8FA70BD420052
:104B100005D04200120E52428A4201DB002070474B
:104B2000C905081870470000F0B507460846584008
:104B300087B0C00F049048000E465900400849084D
:104B4000BC1A884105D2384631461E4617460B46E8
:104B500002465800400810434CD0300D03904005E9
:104B60005900400D490D0590401A0290402872DA14
:104B700018030121000B09050843019004980092D5
:104B8000002805D0019952420020884100920190EE
:104B9000029840210A1A0199009800F05BFA054634
:104BA0000C466B4607CB00F076FAC0197141039AA8
:104BB0000E0D0023D71756401A467A40164344D0AC
:104BC000049A002A2DD0029A012A039A15DC1205B4
:104BD000C01A914101263605001C7141D20F059E75
:104BE000D2070093019202962A46234600F0B4FAB7
:104BF00007B0F0BD38463146FAE71605224A0F469F
:104C0000B218C01AB74101210905001C4F41001814
:104C10007F41114618187941E20F10436D19644124
:104C200013E0E2076D0815436408C2071443039AB2
:104C300001261205C01A91413605001C7141CE07AC
:104C4000400830434908C01851412A46234600F025
:104C500076FACDE7FFE7049801224000C117121A47
:104C600000238B4104983146C417381AA141EEE75E
:104C700030B40124E407634030BC55E730B401246C
:104C8000E407614030BC4FE70000E0FFF0B51FB41F
:104C900088B00B990998002448400999C00F490031
:104CA00049080991C0070B990090490049080B91E8
:104CB00009990898A64608431CD00B990A980843FE
:104CC00018D0099801244000420D4800410D099870
:104CD00024050003000B204309900B980003000BF0
:104CE00020430B9050181C49401800220190144694
:104CF000104605E0002001460DB0F0BD032801DAA2
:104D0000034600E003239C46C11A0AAE0AE05F0096
:104D100008ADED5B4F00F75B7D430027AA187C418F
:104D2000491C5B1E6145F2DD410004AB5A5221046F
:104D3000120C0A43240C401C0828DFDB0198029067
:104D40000099704601910090059B049A0799069876
:104D500000F002FAD0E700000DFCFFFFF0B50C46B2
:104D60005C4085B0E40FE40703944C00002664081F
:104D700059009446490802460296224321D06246D1
:104D80000A431ED06200570D4A000E032303550D3F
:104D9000012402462C492405781B1B0B360B4018B6
:104DA00023432643614600901C46501AB44103D366
:104DB0000098401C009002E0921800985B41002887
:104DC00003DA0020014605B0F0BD002001210905ED
:104DD0000746864611E064461D46141BB54106D3BE
:104DE0006546521BB341744607430C43A646CD07A4
:104DF00040084908284392185B4105460D43EAD113
:104E00001046184313D0604619465040714008437D
:104E100006D06046101AB34106D20122002306E0F4
:104E200000220123DB0702E00122D2435310009845
:104E300074460105381C6141029C039D00196941BB
:104E400000F07DF9BFE70000FD03000070B54B00E6
:104E50005B0803430BD04B005C0D002633466542D4
:104E6000B341D417AD1AA34102DB0020014670BD47
:104E700012053018514170BDC217C10F504010B516
:104E80004018CA079623002100F020F910BD10B584
:104E900000229623114600F019F910BD0EB5C21775
:104EA000C10F5040CA0740180021054B02930192E0
:104EB00000910A460B4600F04FF903B000BD000018
:104EC000330400000EB505490291002100910A4605
:104ED0000B46019100F040F903B000BD330400001F
:104EE000410040020122400AD205090E80187F29A4
:104EF00001DA00207047962903DC9622511AC84037
:104F000070479639884070474A0009030123090B0E
:104F10001B051943094B10B5520D9A4201DA0020C6
:104F200010BD064B34339A4203DC9A1A00F0A2F803
:104F300010BD03495118884010BD0000FF03000058
:104F4000CDFBFFFFC20FD207400040080BD0C10DC0
:104F50000723DB01C91840020905400A1143C208B2
:104F600040071143704700200146704710B50029E3
:104F700004DB0124E40740428C412146002B04DB82
:104F80001C460123DB075242A3418B4200D18242DF
:104F900010BD0000CB0FDB07490010B549080246E1
:104FA0000A4307D00A0D07240903E401090B121B69
:104FB000002A01DC002010BDC900440F0C43C100D1
:104FC000E018D205801800F079F810BD0122D20750
:104FD000002800DB101A002900DB511A81427047BB
:104FE0000122D207002800DB101A002900DB511A29
:104FF00088427047F0B51FB40646002082B00546CF
:105000004024019100901BE0019922460F46304652
:1050100000F030F8049A059B801A994110D310468D
:105020001946224600F016F8361A8F41019722469B
:1050300001200021009F00F00DF838184D4100902C
:105040002046641E0028DFDC019B0098294632467A
:1050500007B0F0BD10B5202A04DB0146203A91408C
:10506000002010BD914020239C1A0346E3401943C1
:10507000904010BD10B5202A04DB0846203AD040ED
:10508000002110BD0B46D340D0402024A21A9140ED
:105090000843194610BD10B5202A06DBCB17084679
:1050A000203A1041C1170B4306E00B461341D04094
:1050B0002024A21A91400843194610BD002904DAA1
:1050C000401C490001D140084000704770B40024E2
:1050D000050C05D11024000402D1002921D011248F
:1050E000050E01D100020834050F01D10001241D75
:1050F000850F01D18000A41C002801DB4000641C46
:10510000002908D020252E1B0D46F540A14000D0D7
:1051100001212943084301061B1B000ADB1D02D5A0
:10512000002070BC7047DB05181880180029F8DAD9
:10513000401C4900F5D170BC40084000704710B5D4
:10514000002B08DA0024401C614192185B411A438D
:1051500001D14008400010BDF0B51FB482B0054633
:105160000C0003D0084602F047F802E002F044F8D1
:1051700020300246009021462846FFF76BFF049B33
:10518000059A04460F4618431143084314D01846A5
:1051900010431BD0009840210A1A18460599FFF7C2
:1051A00069FF05460E46009A05990498FFF752FFDD
:1051B000084305D0012004E02046394607B0F0BD81
:1051C0000020C11705430E432C43374300990E9826
:1051D0006305401A7905E40A00220C43FD0A0A30EF
:1051E00002D500200146E9E70105101969410C9C30
:1051F0000D9D00196941FFF7A2FFDFE7064C01256D
:10520000064E05E0E36807CC2B430C3C984710346E
:10521000B442F7D3FFF758FB8C170020DC170020AF
:1052200070B58C180578401C6B075B0F01D10378B3
:10523000401C2A1106D10278401C03E006780E704B
:10524000401C491C5B1EF9D12B0705D40023521EBC
:105250000DD40B70491CFAE70378401CCB1A921C42
:1052600003E01D780D70491C5B1C521EF9D5A1424C
:10527000D8D3002070BD000003B40148019001BDE7
:105280006902000003B40148019001BD7181000072
:1052900003B40148019001BDB142010003B40148CB
:1052A000019001BDD542010003B40148019001BD48
:1052B000593A010003B40148019001BDED3C0100E1
:1052C00003B40148019001BD1910000003B4014866
:1052D000019001BDC93A010003B40148019001BD2C
:1052E0005518000003B40148019001BD811700006A
:1052F00003B40148019001BDC13C010003B4014861
:10530000019001BDA53C010003B40148019001BD1D
:105310003917000003B40148019001BD39140000A1
:1053200003B40148019001BD1117000003B4014806
:10533000019001BDF13E010003B40148019001BD9F
:105340001B3D010003B40148019001BD7114000030
:1053500003B40148019001BDC131000003B401480C
:10536000019001BDC912000003B40148019001BDC4
:105370003D42010003B40148019001BD5D190000E8
:1053800003B40148019001BD3518000003B4014881
:10539000019001BDC118000003B40148019001BD96
:1053A0003515000003B40148019001BD411700000C
:1053B00003B40148019001BDE915000003B40148A0
:1053C000019001BD897B000003B40148019001BD3B
:1053D000D520000003B40148019001BDA5E50000FF
:1053E00003B40148019001BDC91F000003B4014886
:1053F000019001BDB51E000003B40148019001BD3C
:105400003D1C000003B40148019001BD0D1D0000CA
:1054100003B40148019001BD8306000003B40148B4
:10542000019001BD0143010003B40148019001BD99
:10543000E120000003B40148019001BDED3A0100F4
:1054400003B40148019001BDF53C010003B40148DB
:10545000019001BD5D3F010003B40148019001BD11
:10546000DD21000003B40148019001BD517100002D
:1054700003B40148019001BD9D19010003B4014826
:10548000019001BD3921010003B40148019001BD23
:105490008D44010003B40148019001BD5590000006
:1054A00003B40148019001BD7D3A010003B40148F5
:1054B000019001BD913F010003B40148019001BD7D
:1054C000A942010003B40148019001BD79420100E5
:1054D00003B40148019001BDD136000003B4014876
:1054E000019001BD01E6000003B40148019001BD37
:1054F000BD07000003B40148019001BD891C0000F4
:1055000003B40148019001BDE907000003B401485C
:10551000019001BD6D07000003B40148019001BD79
:10552000FD0E000003B40148019001BD2D0E0000E6
:1055300003B40148019001BD3D07000003B40148D8
:10554000019001BD211A000003B40148019001BD82
:10555000050E000003B40148019001BD892200003E
:1055600003B40148019001BD610E000003B401487D
:10557000019001BD9D0E000003B40148019001BDE2
:10558000D50E000003B40148019001BD610F000079
:1055900003B40148019001BD9502000003B4014825
:1055A000019001BD3543010003B40148019001BDE4
:1055B000E997000003B40148019001BD3D98000047
:1055C00003B40148019001BDE58D000003B401481A
:1055D000019001BD4977010003B40148019001BD6C
:1055E000E91D010003B40148019001BD1120010033
:1055F00003B40148019001BD4920010003B40148F2
:10560000019001BDF504010003B40148019001BD02
:105610004112010003B40148019001BDFD0A0100DF
:1056200003B40148019001BDD90E010003B4014843
:10563000019001BDCD1C010003B40148019001BDE2
:105640004956010003B40148019001BD8D3C0100A1
:1056500003B40148019001BDE55B000003B40148BB
:10566000019001BDE129000003B40148019001BD92
:105670009937000003B40148019001BD51140000A6
:1056800003B40148019001BD091F000003B40148A3
:10569000019001BDA579000003B40148019001BD4E
:1056A0004103000003B40148019001BDF161000015
:1056B00030B50023094D0CE00C785B1C24092C5DEF
:1056C00004700C78DBB22407240F2C5D4470801C1E
:1056D000491C9342F0D3002030BD00008218002006
:1056E00010B50549054801F07FF80348044A082130
:1056F000083001F03FFA10BDD4180020FFFF000071
:10570000AC160020F0B585B00E460546142168465B
:10571000FFF707F904200543A806800F01D03020C9
:1057200005436F46280A787003243946BD70E807A0
:1057300002D0F078C8700424A80702D53079385513
:10574000641C680716D52448C079002806D0A8052F
:1057500001D5307D00E0707A502105E0A80501D523
:10576000307D00E0707A642148436421FFF784FDB6
:105770003855641C280702D5B07A3855641CE806F1
:1057800006D5F088000A3855B079641C3855641C79
:10579000A80603D5307A3855641CE4B2680603D5F0
:1057A000F07B3855641CE4B2280603D5307C3855AC
:1057B000641CE4B2E80503D5B07C3855641CE4B23F
:1057C000A80503D5707D3855641CE4B268460470A2
:1057D00007F04AFC05B0F0BD14180020FEB5994C46
:1057E0000A25607A21460427897A01280ED00328E9
:1057F0001BD120462026007D0B00FFF743FD0B7ACE
:10580000818C9CA7B7C2D2DEFDF77A000B00FFF7B0
:1058100039FD120A0D141F24292F34394045494FF0
:10582000555B6167EF0A03F041FBFEBD08F0F4FD34
:10583000182009F01FFD022018E0002009F01AFDD1
:10584000032023E001218903207DFFF721FDFEBD18
:10585000182009F049FCA772E3E0002009F044FC9D
:10586000052013E0182009F0F3FB0620A072D8E011
:10587000002009F0EDFB072008E0182009F0FEFBEE
:105880000820F3E7002009F0F9FB0920A0720A22A2
:10589000D8E7182009F00AFDA572C2E0002009F03F
:1058A00005FDFEBD6421002003F06AFB0C2023E00F
:1058B0006421782003F064FB0D201DE06421F020BA
:1058C00003F05EFB0E2017E06421382003F048FB54
:1058D0000F2011E06421382003F042FB10200BE080
:1058E00059A003C800900191684607F0BDFB112044
:1058F00002E003F0B5FA01207D22A0721201A1E7B7
:1059000008F08AFD6421002003F03AFB0220A07217
:10591000E08A208385E07D220121D2008903FFF700
:10592000B7FC208B002856D0401E0004000C2083BA
:1059300051D103205EE046A20221142001F0C8FAF2
:105940006421782003F01CFBA7725FE07D22012117
:10595000D2008903FFF79CFC208B00283BD0401E1F
:105960000004000C208336D1052043E039A2022137
:10597000142001F0ADFA6421F02003F001FB0620B1
:1059800019E07D220121D2008903FFF781FC208BE1
:10599000002820D0401E0004000C20831BD10720CB
:1059A00028E02DA20221142001F092FA642138206F
:1059B00003F0D6FA0820A07228E07D220121D2004F
:1059C0008903FFF765FC208B002804D0401E0004EB
:1059D000000C20830DD080B2FFF759FA0246002355
:1059E00002212420009603F02CF9FEBD1CE003E008
:1059F00024E00920A072F8E718A20221142001F087
:105A000067FA6421202003F0ABFAA572E08A2083B4
:105A1000FFF73DFA0246002302212420009603F0FE
:105A200010F97D22D2000DE7208B002804D0401E03
:105A30000004000C208301D080B2E9E7002001F0CF
:105A400093F9000014180020050003000000000076
:105A5000473A0000423A0000433A0000573A00003B
:105A600000B585B014216846FEF75BFF10486A4612
:105A7000C178117001795170417A9170817AD17039
:105A8000C1881171090A5171017A9171C17BD1717B
:105A9000017C1172807C50720A21032001F0BEFA51
:105AA000002802D0002005B000BD0120FBE7000067
:105AB000741F002001207047FEB5294C0025257079
:105AC000A571E5716572274809F0EAFB7F20264938
:105AD000C005086000F0CCFD012105224903207DAE
:105AE000FFF7D6FB214E6946304600F05FFB684663
:105AF0000078012806D1684605706A4601213046C3
:105B000000F090FC1021207DFFF7C8FB1848C570FD
:105B100018A003C80190029101A807F0A5FA0AF0A5
:105B20005BFA6079012805D007F0EEF9657008F09E
:105B30009DFE0AE00021152005F07CFB002007F007
:105B400045F80121152005F075FBFF210131207D6D
:105B5000FFF7A4FB01214902207DFFF79FFBFEBD5B
:105B600014180020000020417818002005030000D0
:105B7000741F00200500030000000000F8B502F0CB
:105B8000FDF80AF011FA4E4C4E4D01272770694678
:105B9000284600F00BFB68460078002806D16846CE
:105BA00007706A460121284600F03CFC6078002816
:105BB00002D1677008F006FDA7717D22D200102186
:105BC000207DFFF765FB6079002601281CD03E4A46
:105BD0000121207DFFF75CFB08F048FE394AFF21D8
:105BE000EE320131207DFFF753FB384D68780428F1
:105BF00001D3022068700024C0B202280ED0012810
:105C000010D0032812D017E02E4A0121DD32207D6A
:105C1000FFF73EFB2A4806844684DFE73024022053
:105C2000E87001E00824EF702E7105E00320E870B1
:105C3000E87A4024401C28710021012005F0FAFA7E
:105C400023480146401E80B20029FAD11F48203067
:105C5000007C012806D0022808D003280BD0042895
:105C60000FD018E0EF702E710F2414E00220E870BE
:105C70002E7137240FE00320E870E87A287107249A
:105C800009E00420E870E87F022814D0FF24AE77F2
:105C9000C934052004430D492046FFF733FD002099
:105CA00006F094FF094802F0CDFF08480AF090FA88
:105CB0000AF010FDF8BDFF24AF77F134E9E70000EA
:105CC0001418002005030000CA070000741F0020FC
:105CD00010270000FEB506F097FD7D2742066021E3
:105CE000FF000126A74D002A09DA82061AD588434B
:105CF00004466879022829D009F082F926E0820654
:105D000010D588430446687901281FD06E71287821
:105D100000281ED13A460121287DFFF7B9FA09F083
:105D200085FD13E0884304460B2005F03FFA002868
:105D30000CD06879002809D009F0C4FD2878002823
:105D400007D10A220121287DFFF7A2FA287800282E
:105D50000AD00121287DFFF7A7FA002804D13A468E
:105D60000121287DFFF794FA687A0027002875D072
:105D7000E1070CD0A878401CC0B2A870322803D923
:105D8000AF70002000F0F0FF401CA87068E0A97818
:105D9000002964D0012802D0022842D05CE0A87A11
:105DA000002859D1687BA97B0840E97B0840297C01
:105DB000084251D001F0E8FF00900AF0EFF80446E5
:105DC000714900984018FA28A87C09D3002802D10C
:105DD000032002F035FF022002F032FFAE7405E02E
:105DE000002803D0032002F02BFFAF746000000EE8
:105DF0000FD066482118664881420AD3A87C002843
:105E000002D1032002F01CFF012002F019FFAE7442
:105E100022E0A87C00281FD10B20A872FFF7DEFC2F
:105E20001AE008220021502001F050F8687BA97B7D
:105E30000840E97B0840297C08420DD00922002156
:105E4000502001F043F853A003C8019100900621AF
:105E5000684605F071FF6E74AF70FEBD42E0AF7032
:105E6000A87A00281FD120070DD5E87A32280AD257
:105E7000401CC2B2EA720221642001F027F8E87ADD
:105E8000282800D96E73E0060DD5E87A0A280AD9C9
:105E9000401EC2B2EA720221642001F017F8E87ACB
:105EA000142800D2AE73687A03285FD1A87A02283A
:105EB00001D3E88A2883288BFEF7E9FF02462020D9
:105EC000009000230221242002F0BBFE002CC4D04D
:105ED000E00701D0142200E096220421287DFFF77C
:105EE000D7F9BAE7E0070ED0A878411CA97032288C
:105EF0001CD9AF702878002802D0FFF7DDFDACE791
:105F0000FFF73CFEA9E7E87C00280FD16846078030
:105F1000A878002809D02878002806D01F48407AA1
:105F2000002802D0684606F0DBFBAF702878002816
:105F30001CD0E87C002819D1684607802007E87843
:105F400017D5411CE970142804D91520E87068465B
:105F500006F048FBE00628790FD5411C297114286A
:105F600004D914202871684606F0C8FA002CB1D173
:105F700073E70028EF70EAD1ECE700282F71F2D127
:105F8000F4E7000014180020CAEFFFFF000090BEE5
:105F90000100B00002800102C00A0000741F00204E
:105FA00010B5034A1321034800F0E4FD10BD0000C2
:105FB000D416002070190020FFB595B0002510956B
:105FC00010AA119500F098F806460A287CD20446DB
:105FD0000620444320462030C0B26A460E2107F016
:105FE000BDFC002802D168468089C5B2179813907D
:105FF000404818990078022813D0002012900829F0
:1060000011D020462130C7B21C2200216846FFF77C
:1060100051F96A461C21384607F0A0FC002805D03B
:1060200010E00120EAE720462230ECE76846807E57
:10603000C01F092806D8E907C90F6A46129B1398A2
:10604000FFF73EF91422002107A8FFF733F9204695
:106050002430C0B207AA102107F080FC002812D11A
:106060001022FF2107A8FFF731F900280BD12534B2
:10607000E0B20BAA042107F071FCE907C90F07AAD7
:106080001798FFF729F97036F0B20CAA102107F023
:1060900065FC002811D10CA803F0B5FB00240CAE60
:1060A000A00080190188002903D08278179800F099
:1060B000BDFD641CE4B2042CF2D3A80704D50D483E
:1060C000017B179800F0A0FD189804280FD109490A
:1060D000087802280BD10A791798002A00D00122EB
:1060E0004978002900D004211143FFF7FBF8002074
:1060F00019B0F0BD881B0020F0B50A2485B0154604
:106100000F46002806D0012804D0022810D003280A
:1061100046D11FE0084603F043FB04460A283FD25D
:10612000002D3DD0062239462846FFF7E1F837E03A
:106130001D4E00240E206043801906223946801D22
:10614000FFF7DCF8002823D1641CE4B20A2CF1D359
:106150000A241DE000242046062148432330C0B213
:106160006A46102107F0FAFB00280CD11022FF210B
:106170006846FFF7ABF8002805D139466846FFF7B7
:10618000C3F8002804D0641CE4B20A2CE3D3DFE790
:106190000A2C05D2002D03D02946204603F018FB17
:1061A000204605B0F0BD0000BE28002070B50C46AA
:1061B0000146032000020A1A002534481300FFF7A5
:1061C00061F81D1012151C1F2326282C303234387C
:1061D0003A3C3E40424446484A4E50525A54565821
:1061E0005A00C07911E01022294902E02849102202
:1061F00010312046FFF77CF845E0C06A206042E09D
:10620000224906223C31F4E7007820703BE0808987
:1062100036E01E4942784231EBE71D4982781F394A
:10622000E7E7007AF1E7407AEFE7184906223031D4
:10623000DFE7807AE9E7C07AE7E7C08920E0808A73
:106240001EE0C0781CE0C08A1AE0008B18E0408B8A
:1062500016E0808B14E00D4906223631C9E7C08B69
:106260000EE0008C0CE0408C0AE08079CDE7008ADB
:1062700006E0408A04E0272904D20846FFF74AF8DE
:10628000208000E00225284670BD0000241B00206D
:106290008D28002070B50E4C00256071A571691E17
:1062A000E181FFF73DF80420E07110220021094848
:1062B000FFF700F80748102200211030FEF7FAFF20
:1062C000E562257265720720A072E57270BD00005C
:1062D000241B00208D280020FEB53B4D0C460804F1
:1062E0000CD56879FFF722F8050004D003F094FB81
:1062F0002846FFF721F80120C00360E0600403D5C1
:10630000012080034840FEBD2F48E1070126807927
:1063100000292AD02978002920D0052821D0287AE0
:1063200069460870687A4870274900A8062230310B
:106330000230FEF7DDFFA87A69460872E87A4872F3
:106340006879FEF7FFFF002808D00720A871696A66
:10635000002903D00968002900D0884720467040F2
:10636000FEBD032069460870E5E7A1070DD50528A5
:1063700009D1E889FEF7ECFFAA8A002A03D002219E
:106380006879FEF785FF022019E0600704D5002038
:1063900003F09AFB042012E0200712D52879012887
:1063A00002D002280AD107E00096AB8B6A8B298BBA
:1063B000E88A00F00BF801E000F05AF9082060408C
:1063C000FEBD0020FEBD0000241B0020F8B5134CCC
:1063D000069DA679052E01D01420F8BD104F861F0A
:1063E000BE4219D2062917D3BE1DB14214D2FF27CF
:1063F000F537BA4210D20A2B0ED3B3420CD2E08248
:1064000021836283A383284603F05EFB0421607925
:10641000FEF744FF0020F8BD1820F8BD241B002023
:106420007A0C0000F7B50C468049009816464218D1
:106430007F4F00257879B9791300FEF723FF190EF5
:10644000141BE92040455970777E888FE996A2A9F0
:10645000B4BFC8E9E9E9E9D3E900102C76D11022EC
:10646000314674486FE0102C70D1724810223146CA
:10647000103068E0042C69D13068F862CEE0012C5D
:1064800064D13B7832783A70002B0AD0002A07D1C9
:10649000022903D0062901D0042901D1FEF75EFFAD
:1064A000BCE0002A0AD0012905D0032903D0052920
:1064B00001D0042902D10121FEF756FFAEE0022CE3
:1064C00044D13088B881A9E01F2C3FD858481F22FA
:1064D00000214230FEF7EEFE55482246314642305A
:1064E000FEF706FF524B7C7042332246012112E038
:1064F0001F2C7CD84F481F2200211F38FEF7DAFEE0
:106500004C48224631461F38FEF7F2FE494BBC701C
:106510001F3B224600217879FEF72CFF83E0012CF7
:1065200065D13078042862D8387277E0012C5ED1CA
:10653000307803285BD8787270E0062C57D13C483D
:10654000062231463030FEF7D3FE67E04FE0012CE3
:106550004DD1307807284AD8B8725FE0012C46D177
:106560003078032843D8F87258E0022C3FD13288A3
:10657000BA82002A52D0052950D10221FEF788FEA6
:106580004CE0012C33D13078012830D8F87045E048
:106590003088022C2BD1062829D31921C901884221
:1065A00025D8F8823AE03088022C20D106281ED364
:1065B0001921C90188421AD838832FE03088022C6B
:1065C00015D1FF21F531884211D2788326E0308839
:1065D000022C0CD10A280AD31921C901884206D8F5
:1065E000B8831BE03178012C01D1012901D0182595
:1065F00014E00821FEF758FE002801D016250DE012
:10660000002003F061FA04217879FEF747FE05E0E7
:106610000098272801D2022C02D002252846FEBD70
:106620003188FEF7ADFE0546F8E70000FFFCFFFFEE
:10663000241B00208D2800201CB50B4CA1790029BB
:1066400001D011201CBD002800D060620649074817
:106650002C31034601910090103B0022E1796079D2
:1066600000F016F800201CBD241B00209D280020EF
:1066700010B506488179052901D0122010BDC189C5
:1066800013224079FEF782FE10BD0000241B00207B
:10669000F8B51D460224069F079E0B00FEF7F2FD8B
:1066A0000A1508060608150615060615002C0CD155
:1066B000FEF772FE040008D1324639462846FEF73E
:1066C00071FEFEF775FEFEF779FE2046F8BD08B5AF
:1066D00000206946009005204A1C09F073F96846BD
:1066E000407800090300FEF7CDFD0906080A060CF4
:1066F0000E1114170600502008BD202008BD2820C8
:1067000008BDA02008BDFF20913008BD1920400120
:1067100008BD1920800108BD1920C00108BD08B5B9
:1067200000206946009005204A1C09F04BF9684694
:1067300040780007000F0300FEF7A4FD0A06080AD0
:10674000060C0F1215181B06A02008BD302008BD2E
:10675000502008BDFF20413008BD1920400108BD70
:106760001920800108BD1920C00108BD19200002B0
:1067700008BD7D20C00108BD10B5002309E01C0143
:106780002418E468944202D11901081810BD5B1C5A
:106790009BB28B42F3D3002010BD000070B50F4DAB
:1067A0000F4CA87029461431204600F01DF8002136
:1067B00028460B460C30CA0084521218491C0906A0
:1067C0005360090EF7D0012003F09AFDA878FEF778
:1067D000FBFD0448FEF7FEFD70BD0000AC1B002071
:1067E000FFFF0000919BFF1F70B50A4C0025A042DF
:1067F00009D1002082008C525218401CC0B2957002
:106800000228F7D370BD03F092F90028FAD0048073
:10681000857070BDFFFF0000F8B50E46074606996B
:1068200000240798002902D00B242046F8BD022B33
:1068300001D00D24F9E711785278120289188DB22F
:106840002946814301D08024EFE73846F16800F003
:1068500089F9A842E9D02A463846F16800F014FACE
:106860000400E2D171892A46384600F0B1F9DCE72C
:10687000FFB50025C1B02E464198B1000C18218803
:106880001E48814232D0A07800282FD0429A4A99DF
:106890004498FFF771FF070028D0194803A9007832
:1068A0000231C01EC0B202900022009144980192B1
:1068B00042894B1C2088394600F040F8002815D149
:1068C000788969468881A078C00705D0208803A907
:1068D000439AFEF785FD0543A078800706D52088FA
:1068E00003A94B9B439AFEF781FD0543761CF6B244
:1068F000022EC1D3284645B0F0BD0000FFFF0000C6
:10690000EC10FF1F70B50C46080412D50A488078B9
:10691000FEF70CFD050008D02878B02802D12846E3
:1069200003F020FA2846FEF707FD0120C00360406F
:1069300070BD002070BD0000AC1B0020FFB583B00F
:10694000087A00250C9E1C460F46C0060DD50598FA
:1069500003F0E6F8030006D00A2239460398984768
:10696000050035D101E00E2532E0387802281DD12E
:10697000786829220178407812020002081881B252
:10698000881A91427ED009DC7348081A23D0012866
:1069900021D002284FD0032808D125E0012872D049
:1069A000022871D003286DD004286ED0059803F01A
:1069B000DFF800286AD00568002DD4D00E990D9814
:1069C000019100903346224639460398A847054670
:1069D000284607B0F0BD0D98002872D1F8680178FC
:1069E00031700278416896E00D98002869D1012045
:1069F0003070F8680021007820707889401C80B2DF
:106A0000FEF7FAFC00280DD0317802788918891C2D
:106A10003170817A61704189090AA17002784168F8
:106A2000E01C79E030780422001D30700021601CE9
:106A3000FEF740FCCCE70D98002875D1F86802A954
:106A40000088009004203070009820700098000AA0
:106A500060700098FEF7D0FC070029D0F86800901D
:106A60006846028901AB3D493846FEF7CBFC002859
:106A700010D13B7802213A487A68FEF7C9FC002819
:106A800008D104E026E030E01CE04AE062E0334850
:106A9000694688800098007802280CD1009802226C
:106AA0004168201DFEF724FC3078801C307002E025
:106AB00069460098888068468088A070000AE07067
:106AC00086E731E00D9800282ED1F968039800F090
:106AD00049F804E00D98002826D1F86800880221C2
:106AE00031702070000A607072E7F868FEF796FC5B
:106AF0000D99C0B2814212D8814201D1002206E034
:106B00000E9A8918814202D30D99401AC2B232708E
:106B1000F9680D9809182046FEF7EAFB58E70725A3
:106B200056E70D98002801D00B2551E70721F8689A
:106B3000317001782170417861708178A17041884D
:106B4000090AE1700179217181796171C088000AB7
:106B5000A0713DE700252FE700280000FFFF00009F
:106B60001E7C010010B502F0E2FF002800D0807802
:106B700010BD00007CB51546040019D0684601948C
:106B80000180FEF751FC03001DD1002D1BD064894C
:106B9000002C0DD00C20FEF74DFC00280AD000235D
:106BA00003608480094A85605168002904D006E0AA
:106BB000022308E0132306E0506004E011460A684F
:106BC000002AFBD1086018467CBD0000AC1B0020E9
:106BD000F8B50C4C0746207815460E46FF280FD016
:106BE0000A20FEF72DFC01000AD0B1200870002019
:106BF000487008714F80CE800D812078FEF726FC0A
:106C0000F8BD0000AC1B002070B50C4605460649D7
:106C1000FFF7A8FF800704D521462846FEF71CFC95
:106C200070BD012070BD0000C01B00201CB56B466C
:106C30001A71120A5A7100220092022301AA00F06E
:106C400001F81CBDFFB583B008461F4601A90C9E84
:106C5000FEF7D2FB050014D06846808802F088FF5A
:106C600000280AD04468002C09D000963B462946EB
:106C7000059A0398A04707B0F0BD0024F3E70E2063
:106C8000F9E70120F7E7000070B514460E46054607
:106C900002F04DFF002806D13146054802F047FFBB
:106CA000002803D005808470002070BD112070BDC5
:106CB000FFFF0000014610B50020C90704D0034AB9
:106CC00007210348FFF756FF10BD0000E81600201B
:106CD000B01A002070B50D46164600241D49030069
:106CE000FEF7D0FA08051234341934222934152D50
:106CF00023D8162200211848FEF7DCFA2A4631462E
:106D00001548FEF7F5FA22E0022D16D11149108838
:106D1000103908801BE0082D0FD10E48082231469B
:106D20000838FDF7E5FD12E0012D06D1CA690949D1
:106D30003078283107E0012D01D0182407E0CA6B14
:106D400004493078483103F07EFC00E002242046FC
:106D500070BD0000B01A00205828002001480078BB
:106D600070470000E0170020002801D008F0F8FD6F
:106D70000021132004F05EFAFEE70000F8B5454F4D
:106D80000A4639788446092948D00A2946D00B2971
:106D900044D00C2942D00D2940D03F4C607A0028C5
:106DA00001D001281AD12078002801D0012815D15E
:106DB00065893A482B1F834210D2A3891E1F864241
:106DC0000CD2AB420AD8002A01D0012A06D1604673
:106DD000334B344D00282DD0012801D01220F8BDAE
:106DE000207A01281AD025200126002904D007295D
:106DF0000AD0082908D011E0E671E273A0740520DA
:106E00003870FEF72FFB13E06A68928D520605D5A5
:106E10001A78002A04D024A000F0CAF92120F8BD75
:106E2000A07427481E70012109030078FEF79CFA20
:106E300026722CE072B60026052904D0072907D057
:106E4000082905D005E03E701E20FEF711FB00E08A
:106E50001E7026725820FEF711FB62B6FEF714FB77
:106E6000184E194CA8600FE0FEF70EFBA968884287
:106E700001D3401A01E0711A0818E8607D2269699F
:106E8000D2005143814202D320680128ECD0002077
:106E9000F8BD00001D12FF1F421DFF1FFD3F000037
:106EA0002312FF1F581E00205B4C4C5F4442475D7D
:106EB000202530325820253032580A0D00000000BD
:106EC0001C12FF1F40420F005812FF1F0020704786
:106ED00070470000F8B50446002003460A5C8507A9
:106EE000ED0EAA401343401C0428F7DB01F0E0F844
:106EF0000028FBD101F0A4FF21022004090E084361
:106F0000FF273F0221463940084372B600211A4D3F
:106F1000A960194E0002803E801C3060336062B66A
:106F200001F0C6F80028FBD101F07AFE112000061E
:106F3000201869462A695207FCD572B60422AA6055
:106F400004020204240E2243384002431002C01CF3
:106F5000306062B628694007FCD530780870307818
:106F60004870307888703078C8700098984201D0A6
:106F70000020F8BD0120F8BD8000081170B505465D
:106F8000002409490948FFF72FFC0948FEF722FAB7
:106F9000E80706D00448074A15210830FFF7EAFD44
:106FA0000446204670BD00009C1C0020FFFF00002E
:106FB000A1F3FF1F5817002010B50B4600240E49FF
:106FC000002806D0022809D005280FD00224204628
:106FD00010BD488810700246084903E0C888107048
:106FE000074902461846FEF783F9F0E788891070D2
:106FF00002460449F6E70000801C00203C2C0020DB
:107000003C3000203C360020002803D002490861B3
:107010000020704711207047801C0020FEB51746E5
:107020000246012000244002814201D91820FEBD01
:107030002148FF2515261300FEF724F90604091040
:107040001524293A41800A4639461C4803E08180CC
:107050000A4639461A48FEF74BF92AE0C1800A462B
:1070600039461848F7E701810A4639461648FEF7BF
:107070003FF9114B0022243318461349103800966B
:10708000019512E041810A4639461048E3E78181C3
:107090000A4639460E48FEF72BF9074B00222433E7
:1070A00018460B49083800960195FFF7E1FB00E010
:1070B00002242046FEBD0000801C00203C2C002045
:1070C0003C2E00203C3000203C3200203C3400208C
:1070D0003C360020024901480860704740787D0135
:1070E000541E002030B587B00446412801D0422C00
:1070F00023D118216846FDF714FCFF2217216846AA
:10710000FDF708FC00256846412C02D0422C05D032
:107110000CE0142504702A460A4904E014250949A4
:1071200004702A461431401CFDF7E2FB6A462946EA
:107130000520FFF773FF002802D0002007B030BD04
:107140000120FBE73D0C002010B57D21C003C900E4
:10715000FEF792F800F002F810BD0000F8B5064600
:107160000027FEF797F904460648051B06E0FEF7E0
:1071700091F9A04201D3071B00E02F18B742F6D3C4
:10718000F8BD0000FFFFFF00CB0776220748002B69
:1071900002D0C260012004E0CB0504D5C260FF200C
:1071A0000130484070470020704700000020004038
:1071B0000FB410B503A9044B044A029800F0D2F8AA
:1071C00010BC08BC04B018473997FF1F781E002078
:1071D0000FB410B504A9074B02AA039800F0C2F837
:1071E000044602A9002000F0F7FA204610BC08BCB3
:1071F00004B01847D977FF1F2021020C01D01021BD
:107200001046020A01D010460839020901D0104682
:10721000091F820801D01046891E420801D0881E2D
:107220007047081A70470000002805DBC106C90E28
:1072300001208840014908607047000000E100E03B
:107240008307FF22DB0E9A408907090E9940002828
:1072500008DB830809489B001818036893430B4315
:10726000036070470007000F0838830804489B003C
:107270001818C36993430B43C361704700E400E0EF
:1072800000ED00E08307FF22DB0E9A408907090E1C
:107290009940002808DB830809489B0018180368F8
:1072A00093430B43036070470007000F08388308BF
:1072B00004489B001818C36993430B43C36170478C
:1072C00000E400E000ED00E08307FF22DB0E9A40BF
:1072D0008907090E9940002808DB830809489B00AC
:1072E0001818036893430B43036070470007000FAF
:1072F0000838830804489B001818C36993430B435C
:10730000C361704700E400E000ED00E0BFF34F8F81
:1073100004490348C860BFF34F8F00BFFDE700007A
:107320000400FA0500ED00E0BFF34F8F0449034865
:10733000C860BFF34F8F00BFFDE700000400FA05EF
:1073400000ED00E002E008C8121F08C1002AFAD1CF
:1073500070477047002001E001C1121F002AFBD1D5
:1073600070470000FFB591B00F460546002606E0C5
:1073700025280AD0149A139990476D1C761C2878FA
:107380000028F5D1304615B0F0BD0024009401214D
:10739000F34A029400E004436D1C2B780846203B1E
:1073A00098401042F7D128782A280ED00221287858
:1073B0000246303A092A15D8009A0A235A43303A2D
:1073C00080180C436D1C0090F1E701CF009000285D
:1073D00005DA012040030443009840420090022057
:1073E00004436D1C28782E2815D1042004436878A6
:1073F0006D1C2A280AD101CF6D1C02900BE0029966
:107400000A225143303940186D1C029028780146F9
:1074100030390929F3D928786C2810D006DC4C289B
:107420001AD068280ED06A2817D104E0742813D027
:107430007A2812D110E00120400504430CE001211C
:10744000090501E0032109050C436978814203D154
:107450000120000524186D1C6D1C287803906E28EF
:107460001ED00CDC632831D004DC00288AD05828D8
:1074700011D1B2E064287BD069280CD178E0732860
:107480002DD004DC6F2870D0702804D1A7E07528B7
:107490006CD078286BD0149A13999047761C62E0D0
:1074A0006002400F022807D003280AD00428386859
:1074B0000AD006603F1D56E03868F117066041604B
:1074C000F8E738680680F5E70670F3E7387869462C
:1074D00008740020487404A80390012003E0386871
:1074E00003900020C0433F1D61070FD5002101E03C
:1074F0000199491C029A0191914213DA8142F7DB0A
:10750000019A0399895C0029F2D10BE0002101E086
:107510000199491C01918142FADB019A0399895C26
:107520000029F5D101990098139A401A009021463C
:10753000149B00F03BF901998019461807E0039865
:1075400003990078491C0391149A13999047019864
:10755000401E0190401CF2D12146149B139A0098C2
:1075600000F014F986196D1C09E741E033E034E0BE
:107570000A200021049005916002410F022905D0E4
:1075800001CFC2179446032905D007E0FF1DFF086D
:10759000FF0003CF06E000B2C2179446042902D1CF
:1075A00040B2C1178C4600226146944506DA0A466D
:1075B0000021404291418C462D2102E0210504D555
:1075C0002B216A461176012103E0E10701D0202139
:1075D000F7E7019154E00A200BE0102009E01020A9
:1075E000049000210420044308200591029003E048
:1075F00008200021059104906002410F022905D066
:1076000001CF00229446032906D006E0FF1DFF08A3
:10761000FF0003CF8C4603E080B2042900D1C0B242
:107620000021019121072BD50399702906D0049AD6
:107630001021059B4A401A4305D00EE040216A46BE
:107640001176012108E06146014306D030216A46E7
:1076500011760399517602210191049A0821059B24
:107660004A401A430CD16146014301D1610707D555
:1076700030216A461176012101910299491E029139
:107680000399582904D037A103910FA90F910DE058
:1076900039A1F9E76146059B049AFDF7ABFC039B12
:1076A0008C469B5C0F9A521E0F92137061460143E9
:1076B000F0D10F9807A9081A20300390600704D56D
:1076C000012000048443029801E001200290039904
:1076D000884201DD401A00E0002041180290019824
:1076E00009180098401A0090E00306D42146149B24
:1076F000139A009800F05AF886190020049008E0C8
:1077000006A9085C149A139990470498401C761CAB
:10771000049001998842F3DBE0030CD52146149BC9
:10772000139A009800F042F8861904E0149A302069
:1077300013999047761C0299481E02900029F5DCA7
:1077400008E00F980F990078491C0F91149A13992B
:107750009047761C0399481E03900029F1DCFBE654
:107760000928010030313233343536373839616217
:1077700063646566000000003031323334353637DB
:10778000383941424344454600000000F8B50446FC
:1077900000251E461746880404D405E039462020FB
:1077A000B0476D1C641EF9D52846F8BDFFB50446E8
:1077B000002581B01E46C80301D5302700E02027F0
:1077C000880404D505E038460399B0476D1C641E53
:1077D000F9D5284605B0F0BD0A68531C0B6010703F
:1077E0007047000004490868FF22120290430122FA
:1077F000D2031043086070471CE400E010B5FDF7A9
:107800004FFE0120FDF752FEFDF756FE002010BD91
:10781000F0B500248E464A1E12E0714600230D1B6F
:107820006D1E0AE09E0031188C46875949688F42C8
:1078300002D9815161464F605B1C9D42F2D8641CA5
:107840009442EAD3F0BD000010B500F097FAFDF7BE
:1078500039FB0022074BFDF719FA0022064BFDF712
:107860007DFA0022054BFDF779FAFDF74DFBC0B21A
:1078700010BD000000708740000059400000244007
:10788000F8B5069800261D461446002801D00B20A6
:10789000F8BD4868012702784078000210181B4A9A
:1078A00080B2904202D1FFF7CFFF14E0174A521C7A
:1078B00090421DD102F042FE1549FDF7ADF8FDF7EB
:1078C00041FB0022134BFDF7D3F90022124BFDF7C9
:1078D00045FAFDF719FB1149087005202870087852
:1078E000207067705420A070E7709F2020710BE01B
:1078F0000B4A904207D1022018700246C968204600
:10790000FDF7F6FC00E00A263046F8BD1A2A000012
:1079100000007A440090AA4000002440CC180020C7
:1079200008290000F0B5044685B000267A48019683
:10793000407901281BD10B2003F038FC002816D118
:1079400001A8216802F084FD0198FDF7FBFA734A53
:10795000734BFDF79BF905460F462068FDF7F2FAD9
:107960002A463B46FDF784F9FDF714FB206002F040
:10797000EBFD002842D06B48457A002DFAD0014635
:1079800020310F7C032F7DD267492068FDF744F832
:10799000664D022F33D0012F7DD8FDF7D3FA06466E
:1079A00028460F46C088FDF78DFA614A614BFDF706
:1079B0006DF932463B46FDF7D1F902460B460020F1
:1079C0000146FDF7B1F8FDF7E5FA0546574800898D
:1079D000FDF778FA584A594BFDF758F932463B46BD
:1079E000FDF7BCF906460F462846FDF7ABFA3246CE
:1079F0003B46FDF799F8FDF7CDFA06464BE0FDF75B
:107A0000A1FA064602910F462888FDF75BFA4C4A18
:107A10004C4BFDF73BF932463B46FDF79FF90246DA
:107A20000B4600200146FDF77FF8FDF7B3FA009002
:107A30006888029FFDF746FA434A444BFDF726F952
:107A400032463B46FDF78AF9074603910098FDF759
:107A500079FA3A46039BFDF767F8FDF79BFA009029
:107A6000A888029FFDF72EFA394A3A4BFDF70EF926
:107A700032463B46FDF772F905460E460098FDF783
:107A800061FA00E002E02A463346B2E73249032FAA
:107A900016D0042F23D03046FDF754FA1F4A204B4E
:107AA000FDF7F4F805460E462068FDF74BFA2A4626
:107AB0003346FDF739F8FDF76DFA206005B0F0BDEB
:107AC000007E03280ED908280CD206280AD016E01A
:107AD000FDF7DCF832463B46FDF740F98BE7807F47
:107AE00000280CD02068FCF797FFFDF72BFA06461C
:107AF0000F462846FDF7E6F90D4A0E4BE8E72068E9
:107B0000FCF78AFFFDF71EFA06460F462846FDF7EA
:107B1000D9F90F4A0F4BDBE7141800207B14AE474E
:107B2000E17AB43F741F002000004844EC1F00209D
:107B3000D7A3703D0AD71440333333333333154062
:107B400052B81E85EB5102405C8FC2F5285C05409F
:107B5000F6285C8FC2F506400000C8427CB54C6830
:107B6000154622786478069E24021219104C92B2AF
:107B7000E24209D101220192DBB200962A46FEF7C9
:107B80004BFE040003D000E00A2420467CBD697847
:107B9000287809024018074980B249680029F4D0C2
:107BA000002802D001208847EFE70220FBE7000011
:107BB000FED6FFFFCC18002003B5694604480978BB
:107BC00001706946498841806946898881800CBD79
:107BD0000418002038B501681C4C012903D01CA0F2
:107BE00006F008F838BD19491039CA788978D206E4
:107BF000C906C90F0091D30F027B8168042003F0EE
:107C000047F9124DFF21C905083DC84209D3A9888B
:107C10002878FDF743FBA98828780522FDF738FB73
:107C200038BD0F49FCF7F8FE0021C943FCF76FFF90
:107C30000C49096AFCF797FE01466060206800F075
:107C400069F869882878FDF78FFB38BD0C1800208B
:107C50000A5F5F414443206572726F720A00000040
:107C600000004041741F002010B502F085FB134C4A
:107C7000002815D01348124A01210078FDF708FBAF
:107C80002078411CC9B221700A2803D80EA005F043
:107C9000B1FF0EE011A005F0ADFF0120FFF764F881
:107CA0001A481B49006802F013FF03F059F8002836
:107CB00001D0112010BD0020207010BD3818002008
:107CC000E203000028180020200A20616420627569
:107CD00073792062256420200A000000200A205FBA
:107CE0005F5F5F5F5F5F5F5F5F616463206D6F64B5
:107CF000756C652072657365745F5F5F5F5F5F5F62
:107D00005F5F5F5F5F5F20200A000000FC170020BC
:107D1000D57BFF1F10B508461149FCF77DFEFDF726
:107D2000DFF880B20F4C10496080884201D964208E
:107D300003E00E49884202D20020207010BDFDF7FA
:107D4000C1F800220A4BFCF793FF0022094BFCF715
:107D50009DFF0022084BFDF701F8FDF7D5F8ECE791
:107D600000007A440018002036100000480D000082
:107D70000090AA40000059400070874001480078F8
:107D8000704700000018002001484088704700003C
:107D90000018002010B504480021016141610D2048
:107DA00003F0E8F9002010BDFC17002010B5FFF724
:107DB0005BFF10BD7CB50446042800D90424354E71
:107DC00006237B2219466720009604F0A3FD662255
:107DD000122307211046009604F09CFD13237B22FA
:107DE00019466720009604F095FD7C221223072196
:107DF0001046009604F08EFD7E220F230A211046C5
:107E0000009604F087FD7F220F230A21104600967A
:107E100004F080FD0025002C0BD012236C220821D9
:107E200068200096019504F035FE012C09D90096D2
:107E300008E0009512236C2208216820019504F0C7
:107E400029FE00951223712208216D20019504F06E
:107E500021FE022C0AD912237622082172200096D4
:107E6000019504F017FE042C11D007E000951223B1
:107E7000762208217220019504F00CFE0095122351
:107E80007B2208217720019504F004FE7CBD00963A
:107E9000F5E700007C7D000070B59CB0584D0024D3
:107EA000687018A90C73202113A8FCF73AFD13AAD7
:107EB0001BA9032007F086FD18A913AA097B5148C6
:107EC000FEF7B0FA10A90C7220210AA8FCF729FDD0
:107ED0000AAA12A9042007F075FD10A961200AAAB8
:107EE000097AC000FEF79EFAFEF719FC0646014625
:107EF0000620FDF745FA31460720FDF741FA3146E5
:107F00000820FDF73DFA31460920FDF739FA6946A8
:107F10003C488C8307AA0221401EFEF783FA69467B
:107F200038480C7606AA0121801CFEF77BFA6946C8
:107F300034480C7505AA0121801EFEF773FAFEF77E
:107F4000C6FB694688832F480A1F02210A30FEF7C4
:107F500069FA2C4807AA02210B30FEF763FA69463A
:107F600028480C8306AA02210C30FEF75BFA4B204E
:107F7000C00069468882C52005AA02218000FEF75C
:107F800051FA0120694608740146312004AA000113
:107F9000FEF748FA06211F20FDF7F2F969460C7733
:107FA000182101A8FCF7BDFC01AA07A9022007F0CF
:107FB00009FD694601AA097F0020FEF78BFE641EB9
:107FC0002046FEF777FEFDF78BFBFDF7E9FF204625
:107FD000FEF7D4FF281DFFF717F805F077FD687846
:107FE00008A9087001208003694648840999089807
:107FF00004F0FEFB01216878FDF7B6F91CB070BDF6
:10800000E01700200703000010B50C4608040AD54D
:108010000E484078FDF78AF9002801D0FDF78CF969
:108020000120C0030DE0E00705D008480830FEF746
:1080300003FB012005E0600405D504F061FB01208D
:108040008003604010BD002010BD0000E01700203C
:10805000064AD088642807D2117A491CC9B2117225
:10806000814201D39069004770470000CC1F002077
:1080700010B50020054CFF212218401C51704028EB
:10808000FADB06F029FB207010BD00004C500020E8
:1080900010B50020054CFF212218401C5170062805
:1080A000FADB06F037FB207010BD0000711E0020C7
:1080B000084801694907FCD501218160054905226D
:1080C00080390A7002695207FCD50878C007C00FD2
:1080D0007047000080000811F0B58646080CFF26A6
:1080E0008446002388B237461C46194601228A403E
:1080F00005461540CD402C19A4B2FF2F02D1012C0A
:1081000000D18FB265462A40CA40D21893B2FF2EE2
:1081100002D1012B00D18EB2491C1029E6DB012CC3
:1081200002D0102C08D009E0012B07D13001C01972
:10813000714608700220F0BD102B01D00320F0BD65
:108140000120F0BDF3B5414A0E46117B83B08B0090
:1081500003981146203900685B185860107B002492
:10816000401CC0B2384D107323460A2800D3137345
:10817000107C002808D1507C401CC0B250740528E7
:1081800002D301201074537431480078002819D0AC
:108190008878401CC0B288700A2810D98B702B4890
:1081A000A10020380F1828467968FCF719FF00D283
:1081B0007D68641C0A2CF2DB0398056042E0337092
:1081C00005B0F0BDD07B00280AD0107C002839D043
:1081D000002000900190107B002805D0401E04E094
:1081E0000120D0733070EBE70920C0B20027029065
:1081F0000298C01B00D509300006810D13482038B5
:108200000C1828466168FCF7EBFE00D265686168CF
:108210000098FCF7DBFE01D260680090616801986D
:10822000FCF7A1FB7F1CFFB20190052FE0D3009962
:10823000FCF7EAFB2946FCF7E7FB0649FCF729FCBB
:10824000039908600120CDE70000A040541F0020E2
:10825000681800200000404010B528210148FCF7B4
:1082600060FB10BD84270020032806D30121890765
:108270008B680122824093438B607047032806D3AA
:10828000012189078B680122824013438B6070476C
:1082900001480068704700001010FF1F012292077C
:1082A0001368012181408B431360106808431060FC
:1082B000704700007CB5274C6A462075107002207C
:1082C0005080012090800021132002F027FF01211F
:1082D000132002F04FFF0021052002F01FFF0121B3
:1082E000052002F047FF34211B48FCF71AFB1A480F
:1082F000042620304673FFF74DFD01990098FFF7E3
:108300005BFC207D6A461070F0015080451095801E
:1083100007F04AFE0199009807F070FD7D22D20017
:108320002946207DFCF7B4FF6A46568001990098E3
:1083300004F052FA00F054FD00221146272003F009
:10834000D7F904F011F8E07406F086F9FDF716FC91
:108350007CBD000014180020341F0020F0B5FD4F34
:1083600087B00C46080409D5387DFCF7DFFF0028EC
:1083700001D0FCF7E1FF0120C00384E2A004002546
:10838000002816DAFEF7EAFC0126760305280AD053
:10839000684605706A460121EF48FEF743F820461B
:1083A000704007B0F0BD05223146387DFCF770FF04
:1083B000F5E7A00603D504F0DDFD202063E2E00729
:1083C0000126002802D0FFF7F1FCE8E7A00776D5E8
:1083D000FFF7D4FC0390FFF7D7FC0290787A0028CF
:1083E00012D0032810D00298FCF76CFDDB4ADC4B5E
:1083F000FCF74CFCFCF7CEFD0246762000210090F5
:108400000223084600F01DFCD2480178D5480490AC
:1084100007460D3F002977D014210398FCF72CFF65
:10842000694608750298FCF74DFDCC4ACC4BFCF729
:108430002DFCFCF7AFFD009069460D7101A968465F
:10844000FFF780FE69460879002803D005A8049A42
:1084500006F060FDBF4E0098F061C3497A7B8A70D8
:10846000C2490978002903D069460979002912D048
:10847000BF4988420EDAB87B401CC0B2B8730128ED
:1084800009D93078002806D0BAA005F0B3FBFDF773
:1084900013FB00E0BD737079022811D0012814D0BD
:1084A000B0482D38057007F00DFA787BFFF782FC95
:1084B000A94A0121DD32307DFCF7EAFEDFE0F3E07E
:1084C0000420A94978738870F0E7F079002813D167
:1084D000A44D2D3D2878002804D1787B002801D0B8
:1084E000401E28702878411C2970FFF763FC28780B
:1084F000042800D900202870974A0121DD32307D00
:10850000FCF7C6FED4E7FFE792484079022807D07F
:10851000012845D093482D38017800297ED094E079
:108520008C48407800281ED1062002F03FFE00282B
:1085300019D006F047F8002004F048FB854D0121D2
:108540006E70152002F076FE0420FFF733FC86489B
:10855000797B81700121287DFCF7A0FE7E4A287D71
:10856000DD3201210DE0062002F020FE002803D0BC
:10857000784EB078002807D0774A7648DD3201215E
:10858000007DFCF79FFF6AE076482D3801780029CE
:1085900000D1057004F0B8FC75700121307D5CE0FD
:1085A0006C48407800280DD106F00CF8002004F04B
:1085B0000DFB684801214670152002F03BFE69481A
:1085C0002D38057014210398FCF756FE694608758E
:1085D0000298FCF777FC614A614BFCF757FBFCF70C
:1085E000D9FC009069460D7101A96846FFF7AAFD04
:1085F00069460879002804D005A8049A06F08AFC88
:10860000B874B87C632801D96320B874554D2D3DEA
:108610002878002806D1787B002800E014E001D0FB
:10862000401E28702878411C2970FFF7C3FB28786A
:10863000042800D900202870474A4648DD3201212D
:10864000007DFCF725FE0AE0057004F05DFC414B5F
:108650005D7007F037F90121187DFCF71FFE3D48DA
:10866000407901280BD10C2002F0A0FD002806D093
:108670000B2002F09BFD002801D106F0C1FC0B206D
:1086800002F094FD00280DD0324B5879002809D013
:1086900007F018F91878002804D164220121187D08
:1086A000FCF7F6FD0220EEE07879002802D00128E0
:1086B00012D020E00B2002F079FD00281BD17E7142
:1086C0000121387DFCF7EAFD64220121387DFCF7A9
:1086D000DFFD07F0ABF80EE0387800280BD00C2057
:1086E00002F064FD002806D00B2002F05FFD002898
:1086F00001D106F085FC0B2002F058FD00280CD0BB
:108700007879002809D007F0DDF83878002804D1FE
:1087100064220121387DFCF7BBFD600703D5FDF71E
:10872000D9FA0420AFE0E00632D5387800280FD01F
:10873000FEF714FB052829D0B879FF227040B871E4
:10874000F5321021387DFCF7A3FDB87907F080FDE4
:10875000102098E01418002005030000FCA9F1D2B5
:108760004D62503F611F0020741F002068180020D8
:108770009A99594020200A205F5F6576656E7420C3
:108780006F66665F5F200A2020000000BE71DCE794
:10879000E00513D507F01CFCF879FF25013500280A
:1087A00001D03B4A03E03878002804D0394A2946F2
:1087B000387DFCF76DFD20466840F2E5A00555D5F3
:1087C00007F0ECFB0190787A002809D0032807D045
:1087D0003D200090012306215020019A00F031FA3B
:1087E000387800281DD02C490198884202DDFDF719
:1087F00063F916E00146294A2948914214DDF979C6
:1088000000292FD1FE712749016007202649FCF776
:1088100079FF27E03D72002001E03E72012007F061
:10882000D3FF012040022EE0204A914217DAF97965
:108830000029F6D07F21FD71C9050160387A002832
:1088400003D03D72002007F0BFFF1748FD7180780C
:10885000FFF7B0FA07201449FCF754FFE1E7F87975
:108860000028DED0387A0028D7D0D3E7E00404D53A
:10887000FDF7F6F80120000305E0600405D5FCF7DC
:10888000ADFF0120800360408BE5002089E50000FA
:10889000F3030000DD070000000084420000704286
:1088A00078180020CDCC4C3F741F002000005042AF
:1088B00010B504460D48407A002813D0FCF7E7FABB
:1088C0000B49FCF7A9F80B49FCF7E3F80A49FCF758
:1088D0004AF80A49FCF7A0F82146FCF79DF8FCF796
:1088E000FFFA80B206F0CAFB10BD0000741F002022
:1088F0000000C04200401C460AD7233D0000484407
:1089000010B5134C0A20E17E41437D20C000FCF7E6
:10891000B3FC1049487010488078C00703D0607ECF
:1089200002280AD00BE0A07F0028094802D007F0F7
:10893000FBFF10BD07F03AFD10BDFFF789FBA07FDC
:10894000002802D007F066FB10BD07F05BFB10BDEE
:10895000741F002068180020CC1F002010B50E489E
:10896000422101710D4941610D49816100210D4A8A
:108970004180D37E0C4C5B005B1E0380937EC380E2
:108980000172094BC3600123E41E23705377017702
:10899000FFF7B6FF10BD0000CC1F00200189FF1FAC
:1089A000AD89FF1F741F00206B18002010B500F068
:1089B000C7F810BD70B51C4C0025214665802031DC
:1089C0001A4804F00DFE43202071194860611948CF
:1089D000A0612572154D7D21E87EC90048430A211A
:1089E000FCF74AFC401E2080A87EE0801248124915
:1089F000E0600120091F08706877207720460A216F
:108A00002A30FBF78EFF20462030014602880A31CB
:108A10000A8042884A8082888A80C288CA80008907
:108A2000088100F00BF870BDCC1F0020741F0020DF
:108A30003D8AFF1F418BFF1F6C18002070B539491C
:108A40000120394E487035882846FCF73BFA02462B
:108A50000B4636483649FCF781F9FCF79BFA044689
:108A6000690870887F25ED05884211D8FCF70FFA58
:108A70002146FBF7D1FFFCF765FA2E4A2E4BFCF797
:108A800053F8FCF787FA0446A8420BDD2C4609E0B0
:108A9000401AFCF7F1F92146FBF7BEFF2946FBF728
:108AA000B7FF04462548204D807F2A35002821D075
:108AB0002888FCF7ECF92146FBF7AEFFFCF710FA2B
:108AC00080B206F0D7FB6888FCF7E1F92146FBF796
:108AD000A3FFFCF705FA80B206F006FBA888FCF7B6
:108AE000D6F92146FBF798FFFCF7FAF980B206F0B9
:108AF000AFFA70BDE888FCF7CAF92146FBF78CFF96
:108B0000FCF7EEF980B206F0B9FA2889FCF7BFF954
:108B10002146FBF781FFFCF7E3F980B206F0C6FBC4
:108B200070BD000068180020CC1F002066666666D5
:108B30006666FE3FA09999999999A93F741F0020F4
:108B400010B5124CA07F002809D0002006F092FB3F
:108B5000002006F0C9FA002006F07AFA05E00020AD
:108B600006F08CFA002006F0A1FB06F0C1FE0849D1
:108B70000020087007490872488060772071034818
:108B8000E17F2030017404F017FB10BD741F00203A
:108B900068180020CC1F002070B5486800250178B7
:108BA0004078000208181C4980B2441A884223D039
:108BB00009DC1A49441811D0012C12D0022C15D00E
:108BC000032C08D115E0012C19D0022C1AD0032C4B
:108BD0001BD0292C1CD00A25284670BD1946002020
:108BE00001E01946062006F0EDFEF5E719460720DC
:108BF000F9E719460820F6E719460920F3E7194670
:108C00000A20F0E719460B20EDE719460C20EAE7A9
:108C100019460D20E7E70000272A0000DDD5FFFFF9
:108C2000064801694907FCD500218160034A0421F7
:108C3000803A117001694907FCD57047800008111E
:108C4000704770473EB50446007800280FD00328CF
:108C50000CD14FA004F0CEFF1F2003F0B7FFA07887
:108C6000FFF7A8F80121152002F0E4FA3EBD04F058
:108C7000FFFCA078FFF79EF84B4D17238122194681
:108C80000B20009503F046FE1823812219460F2081
:108C9000009503F03FFE1923812219461320009509
:108CA00003F038FE41A0434D009000232A461C21CA
:108CB0000A2003F0D5FD40A0009000232A462C2175
:108CC0000A2003F0CDFD3D480021102301910290C0
:108CD0001A4600952C211A2003F091FE38A000902E
:108CE00000232A462C21272003F0BAFD35A000904E
:108CF00000232A463C210A2003F0B2FD33A0009055
:108D000000232A464C210A2003F0AAFD31A000903E
:108D100000232A465C210A2003F0A2FD2FA0009028
:108D200000232A465C212B2003F09AFD1F20C0025D
:108D3000012500908323292270210195092003F049
:108D4000A9FE3F204001009083235322702101950A
:108D5000332003F09FFE1F20009083237D2270218B
:108D600001955D2003F096FE607A00280CD0204625
:108D700007F094FB0121204607F028FD204607F06C
:108D80002BFE204607F042FE204607F063FA69E713
:108D90000A2073797374656D206F6666204368617D
:108DA0007267696E670A0000E0FF00004C65766537
:108DB0006C0000007C7D00005465000085120020DE
:108DC000702E0000436F6C6F720000005363656E7D
:108DD000650000005374726F0000000062650000BF
:108DE00010B515480221C1700021FF2201716932BE
:108DF000C2807F22D2054262017005224272642441
:108E0000047203464170012220331A742B238372AB
:108E1000C17201734173042383708473074B03622F
:108E2000C273FF2303744282017642768376C17651
:108E300001774177817710BD741F0020CDCCCC3DE8
:108E4000064801694907FCD500218160034A0621D3
:108E5000803A117001694907FCD5704780000811FC
:108E600070B5104C012525700020607104F05CF88D
:108E700065700121122002F051F90121122002F047
:108E8000D9F97D22D2002902207DFCF701FA642263
:108E90000821207DFCF7FCF903A202211420FEF733
:108EA00017F870BD14180020523A00007CB5294E06
:108EB00069463046FDF77AF96846007801250028B2
:108EC00006D1684605706A4601213046FDF7AAFAC8
:108ED000214C01A925703046FDF768F968460079F4
:108EE000002806D16846057101AA01213046FDF728
:108EF00099FA25700026667104F016F86570012154
:108F0000122002F00BF90121122002F093F97D22C8
:108F1000FF21D2000131207DFCF7BAF9642208213B
:108F2000207DFCF7B5F9FEF741FFE07C002804D076
:108F300066720A4807F04CF97CBD07F0A7FDE27A9B
:108F400002216420FDF7C2FF227B04216420FDF78B
:108F5000BDFF7CBD0503000014180020741F002015
:108F600010B5064A012351729072D370002111711D
:108F70000F201146FCF7C6FB10BD0000741F002037
:108F800010B5074A5172D080642010720220D07050
:108F90000021117137201146FCF7B4FB10BD000011
:108FA000741F0020F0B5FD4DFD4FE8688DB00078CE
:108FB000787068880026411C69802988884200D31F
:108FC0006E80F848F649407ACC6800280CD0FBF750
:108FD0005EFFF549FBF720FDF449FBF75AFDF44924
:108FE000FBF7C1FC206100E026616888F14D15287F
:108FF00048D8C6B22069FBF7A5FF07460291304664
:109000000191FBF75FFF0646EB4AEC4B0091FBF743
:109010003DFEEB4AEB4BFBF787FD3A46019BFBF726
:1090200035FE00222B46FBF731FEFBF76DFFA080DB
:109030003D463046E44AE54B029F0099FBF726FE89
:10904000DD4AE34BFBF770FD2A463B46FBF71EFE6D
:109050000022D84BFBF71AFEFBF756FFE0802046B4
:1090600007F092FCCE48C0680069FBF76BFF0D4625
:1090700004463046D74AD84B0099FBF707FED74A3B
:10908000D74B86E11A282ED82069FBF75BFF0F46E5
:109090000646D44AD44BFBF7F9FD00222B46FBF7DA
:1090A000F5FDFBF731FFA08030463946CF4AD04B63
:1090B000FBF7ECFD00222B46FBF7E8FDFBF724FF56
:1090C000E08030463946CB4ACB4BFBF7DFFD002230
:1090D0002B46FBF7DBFDFBF717FF2081204607F04F
:1090E0003BF90DB0F0BD25287ED81A38C0B20090EB
:1090F0002069FBF727FF0A900B910098FBF7E2FE2F
:10910000AD4ABE4B05910490FBF7C0FDB34A0091F8
:1091100001905242BA4B02910390FBF705FD0B9B65
:109120000A9AFBF7B3FD0022A24BFBF7AFFDFBF75A
:10913000EBFEA080B34AB44B02990398FBF716FFED
:1091400019D2FA6802921069FBF7FCFE0D4604463C
:10915000AC4AAD4B00990198FBF790FD22462B4697
:10916000FBF794FD0022934BFBF790FDFBF7CCFE41
:10917000029AD08001E0F868C680A24AA34B009909
:109180000198FBF7F3FE17D2FE683069FBF7DAFEB1
:1091900004460D469B4A9D4B00990198FBF76EFDD6
:1091A00022462B46FBF772FD0022824BFBF76EFD39
:1091B000FBF7AAFE308101E0F8680681F86807F045
:1091C000E3FBF8680069FBF7BDFE04460D46904AD4
:1091D000904B05990498FBF759FD22462B46FBF767
:1091E00055FD0022734B00E007E0FBF74FFDFBF756
:1091F0008BFE80B206F05AF873E7352860D8253820
:10920000C0B200902069FBF79DFE06900791009880
:10921000FBF758FE00910190674A784B029103904A
:10922000FBF734FD7C4A7D4BFBF77EFC079B069ADF
:10923000FBF72CFD00225F4BFBF728FDFBF764FEDC
:10924000A080774A774B02990398FBF71FFD654A88
:10925000754B04910390FBF789FE19D2F9680291CE
:109260000869FBF76FFE0D4604465E4A6E4B049993
:109270000398FBF703FD22462B46FBF707FD002270
:109280004C4BFBF703FDFBF73FFE0299C88001E062
:10929000F868C680F96808460E8107F075FBF86823
:1092A0000069FBF74FFE04460D46604A604B00998B
:1092B0000198FBF7EBFC5F4A5F4BFBF735FC8CE753
:1092C0003A281BD8372897D82069FBF73BFE3C4A41
:1092D0003C4BFBF7DBFC00222B46FBF7D7FCFBF7F4
:1092E00013FEA080E6802681204607F04DFBF8683B
:1092F0000069FBF727FE4F4A4F4BD0E045284BD87B
:109300003A38C0B200902069FBF71CFE0746059171
:1093100004910098FBF7D6FD2E4A484B039102902A
:10932000FBF7B4FC464A474B01910090FBF7FCFB6E
:109330003A46049BFBF7AAFC00221E4BFBF7A6FC57
:10934000FBF7E2FDA0803D461B4A1C4B059F01999F
:109350000098FBF7E9FB2A463B46FBF797FC002207
:10936000144BFBF793FCFBF7CFFDE08026812046F2
:1093700007F00AFB0A48C0680069FBF7E3FD0D46E9
:1093800004462A4A2A4B03990298FBF77FFC294A94
:10939000294BFBF773FC20E756E00000CC1F0020B0
:1093A00068180020741F00200000B64200401C46D0
:1093B000EC51B83D000089407B14AE47E17A843F10
:1093C000AE47E17A14AEE33F92CB7F48BF7D6D3F5D
:1093D000E17AA43FFA7E6ABC7493583F0AD7A3701F
:1093E0003D0AA73F9A9999999999C93F33333333E5
:1093F0003333B33F54E3A59BC420B03FE17A743FBD
:10940000C2F5D83F295C8FC2F528BC3FF528AC3F98
:10941000FCA9F1D24D62703F3D0AD7A3703DE23FF7
:10942000462575029A086B3F9999A93FF168E38830
:10943000B5F8343F1A2FDD240681A53F7493683FA9
:109440008FC2F5285C8FE23F502800D949E64628B4
:1094500012D82069FBF776FD134A144BFBF716FC74
:1094600000222B46FBF712FCFBF74EFDA080E680A6
:109470002681204606F070FFF8680069FBF762FD60
:1094800004460E460098FBF71DFD094A094BFBF701
:10949000FDFB094A094BFBF7F1FB22463346FBF77C
:1094A000F5FB00222B469EE6A4703D0AD7A3E03FC1
:1094B000C7BAB88D06F0463F1A2FDD240681A53FB6
:1094C00070B5164DFF22EC68693260890021401C9E
:1094D00080B26081904200D361817F20C005E0604E
:1094E0000F48407A00280CD0FBF7D1FC0D49FBF760
:1094F00093FA0D49FBF7CDFA0C49FBF734FA2061DA
:1095000000E02161204602F0B1FCE86806F024FF8B
:109510000748C0680078687070BD000068180020B7
:10952000741F00200000B64200401C46EC51B83DBC
:10953000CC1F00200E4910B5884201D90A2010BD69
:109540000C49884201D20C480EE00C49884201D2F5
:109550000B4809E00B49884201D20B4804E004495A
:10956000C91C884202D2094800F062F8002010BDF0
:10957000FC3F0000FF0F000000500011FF1F000023
:1095800000600011FF2F000000700011008000112A
:109590000449884202D90020C0437047024940185C
:1095A00000687047FC3F000000500011F0B5044611
:1095B0001E480E46844204D8A119814201D8A00752
:1095C00001D00A20F0BD0023B7080CE09D00281947
:1095D000FFF7DEFF5055010AAD186970010C000E4F
:1095E000A970E8705B1C9F42F0D89B00F01A03281A
:1095F00004D002280CD0012812D015E01819FFF76A
:10960000C7FFD054040A99184C70000C88700BE006
:109610001819FFF7BDFFD054000A9918487003E0ED
:109620001819FFF7B5FFD0540020F0BDFC3F000033
:1096300003460002012100B5000A490388421BD3FA
:10964000FEF736FD0028FBD1FFF7FAFB0B4900209F
:10965000886019021804090E0843FF2109020B4013
:10966000184306490002803920300860FEF720FDCB
:109670000028FBD1FFF7D4FA00BD000080000811DC
:109680000B4A08B5904201D8820701D00A2008BDD4
:1096900000910521090340180002000A04226946CE
:1096A000FDF718FC002801D0002008BD012008BDEE
:1096B000FC3F0000F7B505461E4882B016468542BD
:1096C00005D803996918814201D8A80702D00A2059
:1096D00005B0F0BD03980024800800900CE0A700BE
:1096E000B819401CFBF735F90102F05D0143781908
:1096F000FFF7C6FF0098641CA042F0D80398A400AE
:10970000001B032804D0022808D001280CD00FE049
:10971000A019FBF71EF90102090A06E0A019417819
:1097200000780902014300E0315D6019FFF7A8FFEE
:109730000020CDE7FC3F000038B5044668460470C1
:1097400069460320ABBE204638BD000010B5002896
:1097500023D0124B0022001F196803E0814203D876
:109760000A4649680029F9D1002A0AD01368841AE8
:109770009C4204D1006818181060104602E0506046
:1097800000E01860002907D002680B1A934203D149
:109790000B68D21802604968416010BD7C1E002031
:1097A00070B50A4D064600240E206043401906227B
:1097B0003146FBF7A3FD002801D0204670BD641C94
:1097C000E4B20A2CF0D30A2070BD0000BE280020AD
:1097D0007FB50D460A280CD2002D0AD00621484339
:1097E0002030C0B26A460E2104F0B8F8040003D05D
:1097F00007E0022004B070BD062269462846FBF748
:1098000077FD2046F6E700218A00835A491CDB4396
:10981000835212189378C9B2DB4393700429F3D3AF
:1098200070470000F8B5074600200090784CB978E2
:10983000054607266079A2790B00FBF723FD080592
:10984000DD1A36365E98C1DD787800285AD1704826
:109850000622F91C3C30FBF74BFD0120A0716C4B3C
:109860000146423362786079FBF784FD002849D1D4
:10987000C5E07978002945D1F978002906D0654BF3
:10988000A2780021FBF776FD78700AE0022A0BD05F
:109890000121FBF709FD002803D101216079FBF7C5
:1098A00063FD787800282DD1F8BD7B78002B29D175
:1098B000032909D0A289002A0CD0217800290AD0D6
:1098C0000121FBF7E5FC06E0052A01D0022012E0A9
:1098D000062010E02570A079062802D0042802D0C6
:1098E00008E0052007E00120207001466079FBF7C1
:1098F0003BFD84E00320A07181E07878002803D04C
:10990000312832D0A6717AE041480622391D36301E
:10991000FBF7EEFC7889E081B8892082F8896082C3
:109920000520A071A28A002A03D002216079FBF7EA
:10993000AFFCB889E083F8892084388A6084E078B5
:1099400001280AD11F20FBF7E5FC7D21C90048430F
:10995000024604216079FBF79BFC7A89F87804239E
:10996000391DFCF729FB257049E02570C2E728481E
:10997000062200213630FBF79DFCE58325846584B3
:1099800004216079FBF78AFC08216079FBF786FCEB
:10999000B879082808D00320A0712078002805D0C5
:1099A0006079FBF7DBFC07E00420F5E7012020707D
:1099B00001466079FBF7D8FC0020C043E0811EE03F
:1099C0000821FBF76BFC7878002800D06CE7F8885A
:1099D000E083388920847889608404216079FBF7EA
:1099E00063FC0028F2D1A06A0028EFD00368628CE3
:1099F000218CE08B9847F8BD00980028FBD0606A66
:109A00000028F8D001680029F5D0A0798847F8BD72
:109A1000241B00206E28002010B50178224C9129CB
:109A200006D0A22926D0D02901D1FFF7FBFE10BD18
:109A300041780E29FBD181881C4A91420FD181685F
:109A400003200856A1790529F1D17F28EFD0616A5A
:109A50000029ECD049680029E9D0884710BD144A94
:109A60009142FBD1806883784278017811A004F09C
:109A7000C1F810BD41791329FBD10089012802D119
:109A80002079022808D00520FBF744FC0246082173
:109A90006079FBF7FDFB10BD08216079FBF7FEFB49
:109AA000FCF7E6FD10BD0000241B0020051400009B
:109AB000222000005B48434920444C455D2564203A
:109AC00025642025640A00007CB5144C0546E08B13
:109AD000E18A88420AD3218B884207D8208C618B87
:109AE000884203D1608CA18B884216D00520FBF7F9
:109AF00011FC0646E08A69460880208B4880608B0E
:109B00008880A08BC8806279E089FBF7E1FC257131
:109B1000324608216079FBF7BBFB7CBD241B00208B
:109B200010B500F025F8002800D0806810BD002294
:109B30009300CB5A834202D1900040187047521CC8
:109B4000D2B2022AF4D3002070470000074A002155
:109B5000CB00D35A834202D1C80080187047491CF9
:109B60000906090EF4D0002070470000B81B002041
:109B70000649496805E08A88824201D188687047B1
:109B800009680029F7D1002070470000AC1B0020B5
:109B9000F8B50746012906D0022924D10121FBF797
:109BA0009DFC00281FD13846FFF7D0FF050015D0D7
:109BB00000240D4E0CE0F820696860430818018805
:109BC000002908D0F8220021FBF774FB641CE4B2E2
:109BD00070788442EFD30020C04328800249384681
:109BE0001431FCF701FEF8BDAC1B0020F3B50746AD
:109BF00083B00830029000267888FFF7A7FF019015
:109C000000282FD0002523E001984168F820684300
:109C10000C18218800291FD00298007801280ED145
:109C20006088009023797888621DFDF70BF80600A4
:109C300005D0029900200870049821880180F8223C
:109C400000212046FBF736FB00206D1C2080EDB282
:109C5000074840788542D7D30021C9430198002E98
:109C6000018002D17888FBF73FFC304605B0F0BD9B
:109C7000AC1B0020F3B50546364C074685B00835C9
:109C8000162200212046FBF715FB03A800902B7934
:109C9000698828886A1DFBF72DFC064644E02E489B
:109CA0002E4900780022C01FC0B20091019202909C
:109CB000284B69468A897888F63B3146FCF73EFE98
:109CC000002812D12548E979C01EC27891420CD1F2
:109CD00020492846F6390830FBF710FB002804D04D
:109CE00021787089890009194880684682896988C5
:109CF00004AB3046FBF786FB217806468800001946
:109D00004288002A10D0002E05D06A46128A491CCB
:109D1000217082800AE00A060020920DC0431219C9
:109D2000491C2170908006E0002E04D00C48217858
:109D300000888142B3D32078002806D07888214655
:109D4000FBF7DEFB002007B0F0BD069829880180F4
:109D50000A20F8E7422B0020EC10FF1FAF1B002069
:109D6000F410FF1FF0B585B00446002568468581D4
:109D700020790E287ED00EDC082822D004DC0228B0
:109D800012D006286ED117E0264608360A281ED0C3
:109D90000C2867D138E0102879D012287CD01628FA
:109DA0007FD018285ED181E044484349008808806C
:109DB0006088FBF7ABFB55E003A92046FFF75AFF8D
:109DC00003E003A9204600F06DF905463BE030882A
:109DD00004A9FBF711FB010014D03948364F007875
:109DE0000097401EC0B2019502906A4660887B1CB5
:109DF000128AFCF7A3FD05001DD160883946FBF7E8
:109E00008BFB20E0012516E0308804A9FBF7F4FA6B
:109E10000100F7D02A4872880078274F401EC0B250
:109E20000192009702906A466088128A7B1CFCF7B8
:109E300085FD050003D030886946888103E060888D
:109E40003946FBF76FFB002D0CD06078142809D041
:109E50001949207908706846808948800D716088AA
:109E6000FBF766FB2046FBF769FB16488168002973
:109E700006D003E006E00AE00EE012E02046884744
:109E800005B0F0BD03A9204600F098F99DE703A9AD
:109E9000204600F06BF898E703A9204600F0F2F99D
:109EA00093E703A9204600F00FF88EE703A92046A8
:109EB000FFF79CFE89E70000422B0020EE10FF1FF9
:109EC000EC10FF1FAC1B0020F8B504460F460546FA
